{
    "_format": "hh-sol-artifact-1",
    "contractName": "RoboPunkNFT",
    "sourceName": "contracts/RoboPunkNFT.sol",
    "abi": [
        {
            "inputs": [],
            "stateMutability": "payable",
            "type": "constructor"
        },
        {
            "inputs": [
                {
                    "internalType": "address",
                    "name": "sender",
                    "type": "address"
                },
                {
                    "internalType": "uint256",
                    "name": "tokenId",
                    "type": "uint256"
                },
                {
                    "internalType": "address",
                    "name": "owner",
                    "type": "address"
                }
            ],
            "name": "ERC721IncorrectOwner",
            "type": "error"
        },
        {
            "inputs": [
                {
                    "internalType": "address",
                    "name": "operator",
                    "type": "address"
                },
                {
                    "internalType": "uint256",
                    "name": "tokenId",
                    "type": "uint256"
                }
            ],
            "name": "ERC721InsufficientApproval",
            "type": "error"
        },
        {
            "inputs": [
                {
                    "internalType": "address",
                    "name": "approver",
                    "type": "address"
                }
            ],
            "name": "ERC721InvalidApprover",
            "type": "error"
        },
        {
            "inputs": [
                {
                    "internalType": "address",
                    "name": "operator",
                    "type": "address"
                }
            ],
            "name": "ERC721InvalidOperator",
            "type": "error"
        },
        {
            "inputs": [
                {
                    "internalType": "address",
                    "name": "owner",
                    "type": "address"
                }
            ],
            "name": "ERC721InvalidOwner",
            "type": "error"
        },
        {
            "inputs": [
                {
                    "internalType": "address",
                    "name": "receiver",
                    "type": "address"
                }
            ],
            "name": "ERC721InvalidReceiver",
            "type": "error"
        },
        {
            "inputs": [
                {
                    "internalType": "address",
                    "name": "sender",
                    "type": "address"
                }
            ],
            "name": "ERC721InvalidSender",
            "type": "error"
        },
        {
            "inputs": [
                {
                    "internalType": "uint256",
                    "name": "tokenId",
                    "type": "uint256"
                }
            ],
            "name": "ERC721NonexistentToken",
            "type": "error"
        },
        {
            "inputs": [
                {
                    "internalType": "address",
                    "name": "owner",
                    "type": "address"
                }
            ],
            "name": "OwnableInvalidOwner",
            "type": "error"
        },
        {
            "inputs": [
                {
                    "internalType": "address",
                    "name": "account",
                    "type": "address"
                }
            ],
            "name": "OwnableUnauthorizedAccount",
            "type": "error"
        },
        {
            "anonymous": false,
            "inputs": [
                {
                    "indexed": true,
                    "internalType": "address",
                    "name": "owner",
                    "type": "address"
                },
                {
                    "indexed": true,
                    "internalType": "address",
                    "name": "approved",
                    "type": "address"
                },
                {
                    "indexed": true,
                    "internalType": "uint256",
                    "name": "tokenId",
                    "type": "uint256"
                }
            ],
            "name": "Approval",
            "type": "event"
        },
        {
            "anonymous": false,
            "inputs": [
                {
                    "indexed": true,
                    "internalType": "address",
                    "name": "owner",
                    "type": "address"
                },
                {
                    "indexed": true,
                    "internalType": "address",
                    "name": "operator",
                    "type": "address"
                },
                {
                    "indexed": false,
                    "internalType": "bool",
                    "name": "approved",
                    "type": "bool"
                }
            ],
            "name": "ApprovalForAll",
            "type": "event"
        },
        {
            "anonymous": false,
            "inputs": [
                {
                    "indexed": true,
                    "internalType": "address",
                    "name": "previousOwner",
                    "type": "address"
                },
                {
                    "indexed": true,
                    "internalType": "address",
                    "name": "newOwner",
                    "type": "address"
                }
            ],
            "name": "OwnershipTransferred",
            "type": "event"
        },
        {
            "anonymous": false,
            "inputs": [
                {
                    "indexed": true,
                    "internalType": "address",
                    "name": "from",
                    "type": "address"
                },
                {
                    "indexed": true,
                    "internalType": "address",
                    "name": "to",
                    "type": "address"
                },
                {
                    "indexed": true,
                    "internalType": "uint256",
                    "name": "tokenId",
                    "type": "uint256"
                }
            ],
            "name": "Transfer",
            "type": "event"
        },
        {
            "inputs": [
                {
                    "internalType": "address",
                    "name": "to",
                    "type": "address"
                },
                {
                    "internalType": "uint256",
                    "name": "tokenId",
                    "type": "uint256"
                }
            ],
            "name": "approve",
            "outputs": [],
            "stateMutability": "nonpayable",
            "type": "function"
        },
        {
            "inputs": [
                {
                    "internalType": "address",
                    "name": "owner",
                    "type": "address"
                }
            ],
            "name": "balanceOf",
            "outputs": [
                {
                    "internalType": "uint256",
                    "name": "",
                    "type": "uint256"
                }
            ],
            "stateMutability": "view",
            "type": "function"
        },
        {
            "inputs": [
                {
                    "internalType": "uint256",
                    "name": "tokenId",
                    "type": "uint256"
                }
            ],
            "name": "getApproved",
            "outputs": [
                {
                    "internalType": "address",
                    "name": "",
                    "type": "address"
                }
            ],
            "stateMutability": "view",
            "type": "function"
        },
        {
            "inputs": [
                {
                    "internalType": "address",
                    "name": "owner",
                    "type": "address"
                },
                {
                    "internalType": "address",
                    "name": "operator",
                    "type": "address"
                }
            ],
            "name": "isApprovedForAll",
            "outputs": [
                {
                    "internalType": "bool",
                    "name": "",
                    "type": "bool"
                }
            ],
            "stateMutability": "view",
            "type": "function"
        },
        {
            "inputs": [],
            "name": "isPublicMintEnabled",
            "outputs": [
                {
                    "internalType": "bool",
                    "name": "",
                    "type": "bool"
                }
            ],
            "stateMutability": "view",
            "type": "function"
        },
        {
            "inputs": [],
            "name": "maxPerWallet",
            "outputs": [
                {
                    "internalType": "uint256",
                    "name": "",
                    "type": "uint256"
                }
            ],
            "stateMutability": "view",
            "type": "function"
        },
        {
            "inputs": [],
            "name": "maxSupply",
            "outputs": [
                {
                    "internalType": "uint256",
                    "name": "",
                    "type": "uint256"
                }
            ],
            "stateMutability": "view",
            "type": "function"
        },
        {
            "inputs": [
                {
                    "internalType": "uint256",
                    "name": "quantity",
                    "type": "uint256"
                }
            ],
            "name": "mint",
            "outputs": [],
            "stateMutability": "payable",
            "type": "function"
        },
        {
            "inputs": [],
            "name": "mintPrice",
            "outputs": [
                {
                    "internalType": "uint256",
                    "name": "",
                    "type": "uint256"
                }
            ],
            "stateMutability": "view",
            "type": "function"
        },
        {
            "inputs": [],
            "name": "name",
            "outputs": [
                {
                    "internalType": "string",
                    "name": "",
                    "type": "string"
                }
            ],
            "stateMutability": "view",
            "type": "function"
        },
        {
            "inputs": [],
            "name": "owner",
            "outputs": [
                {
                    "internalType": "address",
                    "name": "",
                    "type": "address"
                }
            ],
            "stateMutability": "view",
            "type": "function"
        },
        {
            "inputs": [
                {
                    "internalType": "uint256",
                    "name": "tokenId",
                    "type": "uint256"
                }
            ],
            "name": "ownerOf",
            "outputs": [
                {
                    "internalType": "address",
                    "name": "",
                    "type": "address"
                }
            ],
            "stateMutability": "view",
            "type": "function"
        },
        {
            "inputs": [],
            "name": "renounceOwnership",
            "outputs": [],
            "stateMutability": "nonpayable",
            "type": "function"
        },
        {
            "inputs": [
                {
                    "internalType": "address",
                    "name": "from",
                    "type": "address"
                },
                {
                    "internalType": "address",
                    "name": "to",
                    "type": "address"
                },
                {
                    "internalType": "uint256",
                    "name": "tokenId",
                    "type": "uint256"
                }
            ],
            "name": "safeTransferFrom",
            "outputs": [],
            "stateMutability": "nonpayable",
            "type": "function"
        },
        {
            "inputs": [
                {
                    "internalType": "address",
                    "name": "from",
                    "type": "address"
                },
                {
                    "internalType": "address",
                    "name": "to",
                    "type": "address"
                },
                {
                    "internalType": "uint256",
                    "name": "tokenId",
                    "type": "uint256"
                },
                {
                    "internalType": "bytes",
                    "name": "data",
                    "type": "bytes"
                }
            ],
            "name": "safeTransferFrom",
            "outputs": [],
            "stateMutability": "nonpayable",
            "type": "function"
        },
        {
            "inputs": [
                {
                    "internalType": "address",
                    "name": "operator",
                    "type": "address"
                },
                {
                    "internalType": "bool",
                    "name": "approved",
                    "type": "bool"
                }
            ],
            "name": "setApprovalForAll",
            "outputs": [],
            "stateMutability": "nonpayable",
            "type": "function"
        },
        {
            "inputs": [
                {
                    "internalType": "string",
                    "name": "baseTokenUri_",
                    "type": "string"
                }
            ],
            "name": "setBaseTokenUri",
            "outputs": [],
            "stateMutability": "nonpayable",
            "type": "function"
        },
        {
            "inputs": [
                {
                    "internalType": "bool",
                    "name": "isPublicMintEnabled_",
                    "type": "bool"
                }
            ],
            "name": "setIsPublicMintEnabled",
            "outputs": [],
            "stateMutability": "nonpayable",
            "type": "function"
        },
        {
            "inputs": [
                {
                    "internalType": "bytes4",
                    "name": "interfaceId",
                    "type": "bytes4"
                }
            ],
            "name": "supportsInterface",
            "outputs": [
                {
                    "internalType": "bool",
                    "name": "",
                    "type": "bool"
                }
            ],
            "stateMutability": "view",
            "type": "function"
        },
        {
            "inputs": [],
            "name": "symbol",
            "outputs": [
                {
                    "internalType": "string",
                    "name": "",
                    "type": "string"
                }
            ],
            "stateMutability": "view",
            "type": "function"
        },
        {
            "inputs": [
                {
                    "internalType": "uint256",
                    "name": "tokenId_",
                    "type": "uint256"
                }
            ],
            "name": "tokenURI",
            "outputs": [
                {
                    "internalType": "string",
                    "name": "",
                    "type": "string"
                }
            ],
            "stateMutability": "view",
            "type": "function"
        },
        {
            "inputs": [],
            "name": "totalSupply",
            "outputs": [
                {
                    "internalType": "uint256",
                    "name": "",
                    "type": "uint256"
                }
            ],
            "stateMutability": "view",
            "type": "function"
        },
        {
            "inputs": [
                {
                    "internalType": "address",
                    "name": "from",
                    "type": "address"
                },
                {
                    "internalType": "address",
                    "name": "to",
                    "type": "address"
                },
                {
                    "internalType": "uint256",
                    "name": "tokenId",
                    "type": "uint256"
                }
            ],
            "name": "transferFrom",
            "outputs": [],
            "stateMutability": "nonpayable",
            "type": "function"
        },
        {
            "inputs": [
                {
                    "internalType": "address",
                    "name": "newOwner",
                    "type": "address"
                }
            ],
            "name": "transferOwnership",
            "outputs": [],
            "stateMutability": "nonpayable",
            "type": "function"
        },
        {
            "inputs": [
                {
                    "internalType": "address",
                    "name": "",
                    "type": "address"
                }
            ],
            "name": "walletMints",
            "outputs": [
                {
                    "internalType": "uint256",
                    "name": "",
                    "type": "uint256"
                }
            ],
            "stateMutability": "view",
            "type": "function"
        },
        {
            "inputs": [],
            "name": "withdraw",
            "outputs": [],
            "stateMutability": "payable",
            "type": "function"
        },
        {
            "inputs": [],
            "name": "withdrawWallet",
            "outputs": [
                {
                    "internalType": "address payable",
                    "name": "",
                    "type": "address"
                }
            ],
            "stateMutability": "view",
            "type": "function"
        }
    ],
    "bytecode": "0x6080604052336040518060400160405280600981526020017f526f626f50756e6b7300000000000000000000000000000000000000000000008152506040518060400160405280600281526020017f525000000000000000000000000000000000000000000000000000000000000081525081600090816100809190610457565b5080600190816100909190610457565b505050600073ffffffffffffffffffffffffffffffffffffffff168173ffffffffffffffffffffffffffffffffffffffff16036101055760006040517f1e4fbdf70000000000000000000000000000000000000000000000000000000081526004016100fc919061056a565b60405180910390fd5b6101148161014160201b60201c565b5066470de4df82000060078190555060006008819055506127106009819055506003600a81905550610585565b6000600660009054906101000a900473ffffffffffffffffffffffffffffffffffffffff16905081600660006101000a81548173ffffffffffffffffffffffffffffffffffffffff021916908373ffffffffffffffffffffffffffffffffffffffff1602179055508173ffffffffffffffffffffffffffffffffffffffff168173ffffffffffffffffffffffffffffffffffffffff167f8be0079c531659141344cd1fd0a4f28419497f9722a3daafe3b4186f6b6457e060405160405180910390a35050565b600081519050919050565b7f4e487b7100000000000000000000000000000000000000000000000000000000600052604160045260246000fd5b7f4e487b7100000000000000000000000000000000000000000000000000000000600052602260045260246000fd5b6000600282049050600182168061028857607f821691505b60208210810361029b5761029a610241565b5b50919050565b60008190508160005260206000209050919050565b60006020601f8301049050919050565b600082821b905092915050565b6000600883026103037fffffffffffffffffffffffffffffffffffffffffffffffffffffffffffffffff826102c6565b61030d86836102c6565b95508019841693508086168417925050509392505050565b6000819050919050565b6000819050919050565b600061035461034f61034a84610325565b61032f565b610325565b9050919050565b6000819050919050565b61036e83610339565b61038261037a8261035b565b8484546102d3565b825550505050565b600090565b61039761038a565b6103a2818484610365565b505050565b5b818110156103c6576103bb60008261038f565b6001810190506103a8565b5050565b601f82111561040b576103dc816102a1565b6103e5846102b6565b810160208510156103f4578190505b610408610400856102b6565b8301826103a7565b50505b505050565b600082821c905092915050565b600061042e60001984600802610410565b1980831691505092915050565b6000610447838361041d565b9150826002028217905092915050565b61046082610207565b67ffffffffffffffff81111561047957610478610212565b5b6104838254610270565b61048e8282856103ca565b600060209050601f8311600181146104c157600084156104af578287015190505b6104b9858261043b565b865550610521565b601f1984166104cf866102a1565b60005b828110156104f7578489015182556001820191506020850194506020810190506104d2565b868310156105145784890151610510601f89168261041d565b8355505b6001600288020188555050505b505050505050565b600073ffffffffffffffffffffffffffffffffffffffff82169050919050565b600061055482610529565b9050919050565b61056481610549565b82525050565b600060208201905061057f600083018461055b565b92915050565b612f2d806105946000396000f3fe60806040526004361061019c5760003560e01c806370a08231116100ec578063a22cb4651161008a578063d5abeb0111610064578063d5abeb0114610586578063e985e9c5146105b1578063f0293fd3146105ee578063f2fde38b1461062b5761019c565b8063a22cb465146104f7578063b88d4fde14610520578063c87b56dd146105495761019c565b80638da5cb5b116100c65780638da5cb5b1461045c57806395652cfa1461048757806395d89b41146104b0578063a0712d68146104db5761019c565b806370a08231146103dd578063715018a61461041a57806385d178f4146104315761019c565b80632373ac221161015957806342842e0e1161013357806342842e0e14610321578063453c23101461034a5780636352211e146103755780636817c76c146103b25761019c565b80632373ac22146102c557806323b872dd146102ee5780633ccfd60b146103175761019c565b80630116bc2d146101a157806301ffc9a7146101cc57806306fdde0314610209578063081812fc14610234578063095ea7b31461027157806318160ddd1461029a575b600080fd5b3480156101ad57600080fd5b506101b6610654565b6040516101c39190611ef4565b60405180910390f35b3480156101d857600080fd5b506101f360048036038101906101ee9190611f7b565b610667565b6040516102009190611ef4565b60405180910390f35b34801561021557600080fd5b5061021e610749565b60405161022b9190612038565b60405180910390f35b34801561024057600080fd5b5061025b60048036038101906102569190612090565b6107db565b60405161026891906120fe565b60405180910390f35b34801561027d57600080fd5b5061029860048036038101906102939190612145565b6107f7565b005b3480156102a657600080fd5b506102af61080d565b6040516102bc9190612194565b60405180910390f35b3480156102d157600080fd5b506102ec60048036038101906102e791906121db565b610813565b005b3480156102fa57600080fd5b5061031560048036038101906103109190612208565b610838565b005b61031f61093a565b005b34801561032d57600080fd5b5061034860048036038101906103439190612208565b610a13565b005b34801561035657600080fd5b5061035f610a33565b60405161036c9190612194565b60405180910390f35b34801561038157600080fd5b5061039c60048036038101906103979190612090565b610a39565b6040516103a991906120fe565b60405180910390f35b3480156103be57600080fd5b506103c7610a4b565b6040516103d49190612194565b60405180910390f35b3480156103e957600080fd5b5061040460048036038101906103ff919061225b565b610a51565b6040516104119190612194565b60405180910390f35b34801561042657600080fd5b5061042f610b0b565b005b34801561043d57600080fd5b50610446610b1f565b60405161045391906122a9565b60405180910390f35b34801561046857600080fd5b50610471610b45565b60405161047e91906120fe565b60405180910390f35b34801561049357600080fd5b506104ae60048036038101906104a99190612329565b610b6f565b005b3480156104bc57600080fd5b506104c5610b8d565b6040516104d29190612038565b60405180910390f35b6104f560048036038101906104f09190612090565b610c1f565b005b34801561050357600080fd5b5061051e60048036038101906105199190612376565b610df0565b005b34801561052c57600080fd5b50610547600480360381019061054291906124e6565b610e06565b005b34801561055557600080fd5b50610570600480360381019061056b9190612090565b610e2b565b60405161057d9190612038565b60405180910390f35b34801561059257600080fd5b5061059b610ea7565b6040516105a89190612194565b60405180910390f35b3480156105bd57600080fd5b506105d860048036038101906105d39190612569565b610ead565b6040516105e59190611ef4565b60405180910390f35b3480156105fa57600080fd5b506106156004803603810190610610919061225b565b610f41565b6040516106229190612194565b60405180910390f35b34801561063757600080fd5b50610652600480360381019061064d919061225b565b610f59565b005b600b60009054906101000a900460ff1681565b60007f80ac58cd000000000000000000000000000000000000000000000000000000007bffffffffffffffffffffffffffffffffffffffffffffffffffffffff1916827bffffffffffffffffffffffffffffffffffffffffffffffffffffffff1916148061073257507f5b5e139f000000000000000000000000000000000000000000000000000000007bffffffffffffffffffffffffffffffffffffffffffffffffffffffff1916827bffffffffffffffffffffffffffffffffffffffffffffffffffffffff1916145b80610742575061074182610fdf565b5b9050919050565b606060008054610758906125d8565b80601f0160208091040260200160405190810160405280929190818152602001828054610784906125d8565b80156107d15780601f106107a6576101008083540402835291602001916107d1565b820191906000526020600020905b8154815290600101906020018083116107b457829003601f168201915b5050505050905090565b60006107e682611049565b506107f0826110d1565b9050919050565b610809828261080461110e565b611116565b5050565b60085481565b61081b611128565b80600b60006101000a81548160ff02191690831515021790555050565b600073ffffffffffffffffffffffffffffffffffffffff168273ffffffffffffffffffffffffffffffffffffffff16036108aa5760006040517f64a0ae920000000000000000000000000000000000000000000000000000000081526004016108a191906120fe565b60405180910390fd5b60006108be83836108b961110e565b6111af565b90508373ffffffffffffffffffffffffffffffffffffffff168173ffffffffffffffffffffffffffffffffffffffff1614610934578382826040517f64283d7b00000000000000000000000000000000000000000000000000000000815260040161092b93929190612609565b60405180910390fd5b50505050565b610942611128565b6000600d60009054906101000a900473ffffffffffffffffffffffffffffffffffffffff1673ffffffffffffffffffffffffffffffffffffffff164760405161098a90612671565b60006040518083038185875af1925050503d80600081146109c7576040519150601f19603f3d011682016040523d82523d6000602084013e6109cc565b606091505b5050905080610a10576040517f08c379a0000000000000000000000000000000000000000000000000000000008152600401610a07906126d2565b60405180910390fd5b50565b610a2e83838360405180602001604052806000815250610e06565b505050565b600a5481565b6000610a4482611049565b9050919050565b60075481565b60008073ffffffffffffffffffffffffffffffffffffffff168273ffffffffffffffffffffffffffffffffffffffff1603610ac45760006040517f89c62b64000000000000000000000000000000000000000000000000000000008152600401610abb91906120fe565b60405180910390fd5b600360008373ffffffffffffffffffffffffffffffffffffffff1673ffffffffffffffffffffffffffffffffffffffff168152602001908152602001600020549050919050565b610b13611128565b610b1d60006113c9565b565b600d60009054906101000a900473ffffffffffffffffffffffffffffffffffffffff1681565b6000600660009054906101000a900473ffffffffffffffffffffffffffffffffffffffff16905090565b610b77611128565b8181600c9182610b889291906128a9565b505050565b606060018054610b9c906125d8565b80601f0160208091040260200160405190810160405280929190818152602001828054610bc8906125d8565b8015610c155780601f10610bea57610100808354040283529160200191610c15565b820191906000526020600020905b815481529060010190602001808311610bf857829003601f168201915b5050505050905090565b600b60009054906101000a900460ff16610c6e576040517f08c379a0000000000000000000000000000000000000000000000000000000008152600401610c65906129c5565b60405180910390fd5b60075481610c7c9190612a14565b3414610cbd576040517f08c379a0000000000000000000000000000000000000000000000000000000008152600401610cb490612aa2565b60405180910390fd5b60095481600854610cce9190612ac2565b1115610d0f576040517f08c379a0000000000000000000000000000000000000000000000000000000008152600401610d0690612b42565b60405180910390fd5b600a5481600e60003373ffffffffffffffffffffffffffffffffffffffff1673ffffffffffffffffffffffffffffffffffffffff16815260200190815260200160002054610d5d9190612ac2565b1115610d9e576040517f08c379a0000000000000000000000000000000000000000000000000000000008152600401610d9590612bae565b60405180910390fd5b60005b81811015610dec5760006001600854610dba9190612ac2565b905060086000815480929190610dcf90612bce565b9190505550610dde338261148f565b508080600101915050610da1565b5050565b610e02610dfb61110e565b83836114ad565b5050565b610e11848484610838565b610e25610e1c61110e565b8585858561161c565b50505050565b6060610e36826117cd565b610e75576040517f08c379a0000000000000000000000000000000000000000000000000000000008152600401610e6c90612c62565b60405180910390fd5b600c610e8083611814565b604051602001610e91929190612d8d565b6040516020818303038152906040529050919050565b60095481565b6000600560008473ffffffffffffffffffffffffffffffffffffffff1673ffffffffffffffffffffffffffffffffffffffff16815260200190815260200160002060008373ffffffffffffffffffffffffffffffffffffffff1673ffffffffffffffffffffffffffffffffffffffff16815260200190815260200160002060009054906101000a900460ff16905092915050565b600e6020528060005260406000206000915090505481565b610f61611128565b600073ffffffffffffffffffffffffffffffffffffffff168173ffffffffffffffffffffffffffffffffffffffff1603610fd35760006040517f1e4fbdf7000000000000000000000000000000000000000000000000000000008152600401610fca91906120fe565b60405180910390fd5b610fdc816113c9565b50565b60007f01ffc9a7000000000000000000000000000000000000000000000000000000007bffffffffffffffffffffffffffffffffffffffffffffffffffffffff1916827bffffffffffffffffffffffffffffffffffffffffffffffffffffffff1916149050919050565b600080611055836118e2565b9050600073ffffffffffffffffffffffffffffffffffffffff168173ffffffffffffffffffffffffffffffffffffffff16036110c857826040517f7e2732890000000000000000000000000000000000000000000000000000000081526004016110bf9190612194565b60405180910390fd5b80915050919050565b60006004600083815260200190815260200160002060009054906101000a900473ffffffffffffffffffffffffffffffffffffffff169050919050565b600033905090565b611123838383600161191f565b505050565b61113061110e565b73ffffffffffffffffffffffffffffffffffffffff1661114e610b45565b73ffffffffffffffffffffffffffffffffffffffff16146111ad5761117161110e565b6040517f118cdaa70000000000000000000000000000000000000000000000000000000081526004016111a491906120fe565b60405180910390fd5b565b6000806111bb846118e2565b9050600073ffffffffffffffffffffffffffffffffffffffff168373ffffffffffffffffffffffffffffffffffffffff16146111fd576111fc818486611ae4565b5b600073ffffffffffffffffffffffffffffffffffffffff168173ffffffffffffffffffffffffffffffffffffffff161461128e5761123f60008560008061191f565b6001600360008373ffffffffffffffffffffffffffffffffffffffff1673ffffffffffffffffffffffffffffffffffffffff168152602001908152602001600020600082825403925050819055505b600073ffffffffffffffffffffffffffffffffffffffff168573ffffffffffffffffffffffffffffffffffffffff1614611311576001600360008773ffffffffffffffffffffffffffffffffffffffff1673ffffffffffffffffffffffffffffffffffffffff168152602001908152602001600020600082825401925050819055505b846002600086815260200190815260200160002060006101000a81548173ffffffffffffffffffffffffffffffffffffffff021916908373ffffffffffffffffffffffffffffffffffffffff160217905550838573ffffffffffffffffffffffffffffffffffffffff168273ffffffffffffffffffffffffffffffffffffffff167fddf252ad1be2c89b69c2b068fc378daa952ba7f163c4a11628f55a4df523b3ef60405160405180910390a4809150509392505050565b6000600660009054906101000a900473ffffffffffffffffffffffffffffffffffffffff16905081600660006101000a81548173ffffffffffffffffffffffffffffffffffffffff021916908373ffffffffffffffffffffffffffffffffffffffff1602179055508173ffffffffffffffffffffffffffffffffffffffff168173ffffffffffffffffffffffffffffffffffffffff167f8be0079c531659141344cd1fd0a4f28419497f9722a3daafe3b4186f6b6457e060405160405180910390a35050565b6114a9828260405180602001604052806000815250611ba8565b5050565b600073ffffffffffffffffffffffffffffffffffffffff168273ffffffffffffffffffffffffffffffffffffffff160361151e57816040517f5b08ba1800000000000000000000000000000000000000000000000000000000815260040161151591906120fe565b60405180910390fd5b80600560008573ffffffffffffffffffffffffffffffffffffffff1673ffffffffffffffffffffffffffffffffffffffff16815260200190815260200160002060008473ffffffffffffffffffffffffffffffffffffffff1673ffffffffffffffffffffffffffffffffffffffff16815260200190815260200160002060006101000a81548160ff0219169083151502179055508173ffffffffffffffffffffffffffffffffffffffff168373ffffffffffffffffffffffffffffffffffffffff167f17307eab39ab6107e8899845ad3d59bd9653f200f220920489ca2b5937696c318360405161160f9190611ef4565b60405180910390a3505050565b60008373ffffffffffffffffffffffffffffffffffffffff163b11156117c6578273ffffffffffffffffffffffffffffffffffffffff1663150b7a02868685856040518563ffffffff1660e01b815260040161167b9493929190612e11565b6020604051808303816000875af19250505080156116b757506040513d601f19601f820116820180604052508101906116b49190612e72565b60015b61173b573d80600081146116e7576040519150601f19603f3d011682016040523d82523d6000602084013e6116ec565b606091505b50600081510361173357836040517f64a0ae9200000000000000000000000000000000000000000000000000000000815260040161172a91906120fe565b60405180910390fd5b805181602001fd5b63150b7a0260e01b7bffffffffffffffffffffffffffffffffffffffffffffffffffffffff1916817bffffffffffffffffffffffffffffffffffffffffffffffffffffffff1916146117c457836040517f64a0ae920000000000000000000000000000000000000000000000000000000081526004016117bb91906120fe565b60405180910390fd5b505b5050505050565b6000806117d983610a39565b9050600073ffffffffffffffffffffffffffffffffffffffff168173ffffffffffffffffffffffffffffffffffffffff161415915050919050565b60606000600161182384611bcc565b01905060008167ffffffffffffffff811115611842576118416123bb565b5b6040519080825280601f01601f1916602001820160405280156118745781602001600182028036833780820191505090505b509050600082602001820190505b6001156118d7578080600190039150507f3031323334353637383961626364656600000000000000000000000000000000600a86061a8153600a85816118cb576118ca612e9f565b5b04945060008503611882575b819350505050919050565b60006002600083815260200190815260200160002060009054906101000a900473ffffffffffffffffffffffffffffffffffffffff169050919050565b80806119585750600073ffffffffffffffffffffffffffffffffffffffff168273ffffffffffffffffffffffffffffffffffffffff1614155b15611a8c57600061196884611049565b9050600073ffffffffffffffffffffffffffffffffffffffff168373ffffffffffffffffffffffffffffffffffffffff16141580156119d357508273ffffffffffffffffffffffffffffffffffffffff168173ffffffffffffffffffffffffffffffffffffffff1614155b80156119e657506119e48184610ead565b155b15611a2857826040517fa9fbf51f000000000000000000000000000000000000000000000000000000008152600401611a1f91906120fe565b60405180910390fd5b8115611a8a57838573ffffffffffffffffffffffffffffffffffffffff168273ffffffffffffffffffffffffffffffffffffffff167f8c5be1e5ebec7d5bd14f71427d1e84f3dd0314c0f7b2291e5b200ac8c7c3b92560405160405180910390a45b505b836004600085815260200190815260200160002060006101000a81548173ffffffffffffffffffffffffffffffffffffffff021916908373ffffffffffffffffffffffffffffffffffffffff16021790555050505050565b611aef838383611d1f565b611ba357600073ffffffffffffffffffffffffffffffffffffffff168373ffffffffffffffffffffffffffffffffffffffff1603611b6457806040517f7e273289000000000000000000000000000000000000000000000000000000008152600401611b5b9190612194565b60405180910390fd5b81816040517f177e802f000000000000000000000000000000000000000000000000000000008152600401611b9a929190612ece565b60405180910390fd5b505050565b611bb28383611de0565b611bc7611bbd61110e565b600085858561161c565b505050565b600080600090507a184f03e93ff9f4daa797ed6e38ed64bf6a1f0100000000000000008310611c2a577a184f03e93ff9f4daa797ed6e38ed64bf6a1f0100000000000000008381611c2057611c1f612e9f565b5b0492506040810190505b6d04ee2d6d415b85acef81000000008310611c67576d04ee2d6d415b85acef81000000008381611c5d57611c5c612e9f565b5b0492506020810190505b662386f26fc100008310611c9657662386f26fc100008381611c8c57611c8b612e9f565b5b0492506010810190505b6305f5e1008310611cbf576305f5e1008381611cb557611cb4612e9f565b5b0492506008810190505b6127108310611ce4576127108381611cda57611cd9612e9f565b5b0492506004810190505b60648310611d075760648381611cfd57611cfc612e9f565b5b0492506002810190505b600a8310611d16576001810190505b80915050919050565b60008073ffffffffffffffffffffffffffffffffffffffff168373ffffffffffffffffffffffffffffffffffffffff1614158015611dd757508273ffffffffffffffffffffffffffffffffffffffff168473ffffffffffffffffffffffffffffffffffffffff161480611d985750611d978484610ead565b5b80611dd657508273ffffffffffffffffffffffffffffffffffffffff16611dbe836110d1565b73ffffffffffffffffffffffffffffffffffffffff16145b5b90509392505050565b600073ffffffffffffffffffffffffffffffffffffffff168273ffffffffffffffffffffffffffffffffffffffff1603611e525760006040517f64a0ae92000000000000000000000000000000000000000000000000000000008152600401611e4991906120fe565b60405180910390fd5b6000611e60838360006111af565b9050600073ffffffffffffffffffffffffffffffffffffffff168173ffffffffffffffffffffffffffffffffffffffff1614611ed45760006040517f73c6ac6e000000000000000000000000000000000000000000000000000000008152600401611ecb91906120fe565b60405180910390fd5b505050565b60008115159050919050565b611eee81611ed9565b82525050565b6000602082019050611f096000830184611ee5565b92915050565b6000604051905090565b600080fd5b600080fd5b60007fffffffff0000000000000000000000000000000000000000000000000000000082169050919050565b611f5881611f23565b8114611f6357600080fd5b50565b600081359050611f7581611f4f565b92915050565b600060208284031215611f9157611f90611f19565b5b6000611f9f84828501611f66565b91505092915050565b600081519050919050565b600082825260208201905092915050565b60005b83811015611fe2578082015181840152602081019050611fc7565b60008484015250505050565b6000601f19601f8301169050919050565b600061200a82611fa8565b6120148185611fb3565b9350612024818560208601611fc4565b61202d81611fee565b840191505092915050565b600060208201905081810360008301526120528184611fff565b905092915050565b6000819050919050565b61206d8161205a565b811461207857600080fd5b50565b60008135905061208a81612064565b92915050565b6000602082840312156120a6576120a5611f19565b5b60006120b48482850161207b565b91505092915050565b600073ffffffffffffffffffffffffffffffffffffffff82169050919050565b60006120e8826120bd565b9050919050565b6120f8816120dd565b82525050565b600060208201905061211360008301846120ef565b92915050565b612122816120dd565b811461212d57600080fd5b50565b60008135905061213f81612119565b92915050565b6000806040838503121561215c5761215b611f19565b5b600061216a85828601612130565b925050602061217b8582860161207b565b9150509250929050565b61218e8161205a565b82525050565b60006020820190506121a96000830184612185565b92915050565b6121b881611ed9565b81146121c357600080fd5b50565b6000813590506121d5816121af565b92915050565b6000602082840312156121f1576121f0611f19565b5b60006121ff848285016121c6565b91505092915050565b60008060006060848603121561222157612220611f19565b5b600061222f86828701612130565b935050602061224086828701612130565b92505060406122518682870161207b565b9150509250925092565b60006020828403121561227157612270611f19565b5b600061227f84828501612130565b91505092915050565b6000612293826120bd565b9050919050565b6122a381612288565b82525050565b60006020820190506122be600083018461229a565b92915050565b600080fd5b600080fd5b600080fd5b60008083601f8401126122e9576122e86122c4565b5b8235905067ffffffffffffffff811115612306576123056122c9565b5b602083019150836001820283011115612322576123216122ce565b5b9250929050565b600080602083850312156123405761233f611f19565b5b600083013567ffffffffffffffff81111561235e5761235d611f1e565b5b61236a858286016122d3565b92509250509250929050565b6000806040838503121561238d5761238c611f19565b5b600061239b85828601612130565b92505060206123ac858286016121c6565b9150509250929050565b600080fd5b7f4e487b7100000000000000000000000000000000000000000000000000000000600052604160045260246000fd5b6123f382611fee565b810181811067ffffffffffffffff82111715612412576124116123bb565b5b80604052505050565b6000612425611f0f565b905061243182826123ea565b919050565b600067ffffffffffffffff821115612451576124506123bb565b5b61245a82611fee565b9050602081019050919050565b82818337600083830152505050565b600061248961248484612436565b61241b565b9050828152602081018484840111156124a5576124a46123b6565b5b6124b0848285612467565b509392505050565b600082601f8301126124cd576124cc6122c4565b5b81356124dd848260208601612476565b91505092915050565b60008060008060808587031215612500576124ff611f19565b5b600061250e87828801612130565b945050602061251f87828801612130565b93505060406125308782880161207b565b925050606085013567ffffffffffffffff81111561255157612550611f1e565b5b61255d878288016124b8565b91505092959194509250565b600080604083850312156125805761257f611f19565b5b600061258e85828601612130565b925050602061259f85828601612130565b9150509250929050565b7f4e487b7100000000000000000000000000000000000000000000000000000000600052602260045260246000fd5b600060028204905060018216806125f057607f821691505b602082108103612603576126026125a9565b5b50919050565b600060608201905061261e60008301866120ef565b61262b6020830185612185565b61263860408301846120ef565b949350505050565b600081905092915050565b50565b600061265b600083612640565b91506126668261264b565b600082019050919050565b600061267c8261264e565b9150819050919050565b7f5769746864726177206661696c65640000000000000000000000000000000000600082015250565b60006126bc600f83611fb3565b91506126c782612686565b602082019050919050565b600060208201905081810360008301526126eb816126af565b9050919050565b600082905092915050565b60008190508160005260206000209050919050565b60006020601f8301049050919050565b600082821b905092915050565b60006008830261275f7fffffffffffffffffffffffffffffffffffffffffffffffffffffffffffffffff82612722565b6127698683612722565b95508019841693508086168417925050509392505050565b6000819050919050565b60006127a66127a161279c8461205a565b612781565b61205a565b9050919050565b6000819050919050565b6127c08361278b565b6127d46127cc826127ad565b84845461272f565b825550505050565b600090565b6127e96127dc565b6127f48184846127b7565b505050565b5b818110156128185761280d6000826127e1565b6001810190506127fa565b5050565b601f82111561285d5761282e816126fd565b61283784612712565b81016020851015612846578190505b61285a61285285612712565b8301826127f9565b50505b505050565b600082821c905092915050565b600061288060001984600802612862565b1980831691505092915050565b6000612899838361286f565b9150826002028217905092915050565b6128b383836126f2565b67ffffffffffffffff8111156128cc576128cb6123bb565b5b6128d682546125d8565b6128e182828561281c565b6000601f83116001811461291057600084156128fe578287013590505b612908858261288d565b865550612970565b601f19841661291e866126fd565b60005b8281101561294657848901358255600182019150602085019450602081019050612921565b86831015612963578489013561295f601f89168261286f565b8355505b6001600288020188555050505b50505050505050565b7f4d696e74696e67206973206e6f7420656e61626c656400000000000000000000600082015250565b60006129af601683611fb3565b91506129ba82612979565b602082019050919050565b600060208201905081810360008301526129de816129a2565b9050919050565b7f4e487b7100000000000000000000000000000000000000000000000000000000600052601160045260246000fd5b6000612a1f8261205a565b9150612a2a8361205a565b9250828202612a388161205a565b91508282048414831517612a4f57612a4e6129e5565b5b5092915050565b7f57726f6e67204554482076616c75652073656e74000000000000000000000000600082015250565b6000612a8c601483611fb3565b9150612a9782612a56565b602082019050919050565b60006020820190508181036000830152612abb81612a7f565b9050919050565b6000612acd8261205a565b9150612ad88361205a565b9250828201905080821115612af057612aef6129e5565b5b92915050565b7f4d617820737570706c7920657863656564656400000000000000000000000000600082015250565b6000612b2c601383611fb3565b9150612b3782612af6565b602082019050919050565b60006020820190508181036000830152612b5b81612b1f565b9050919050565b7f4d6178207065722077616c6c6574206578636565646564000000000000000000600082015250565b6000612b98601783611fb3565b9150612ba382612b62565b602082019050919050565b60006020820190508181036000830152612bc781612b8b565b9050919050565b6000612bd98261205a565b91507fffffffffffffffffffffffffffffffffffffffffffffffffffffffffffffffff8203612c0b57612c0a6129e5565b5b600182019050919050565b7f546f6b656e20646f6573206e6f74206578697374210000000000000000000000600082015250565b6000612c4c601583611fb3565b9150612c5782612c16565b602082019050919050565b60006020820190508181036000830152612c7b81612c3f565b9050919050565b600081905092915050565b60008154612c9a816125d8565b612ca48186612c82565b94506001821660008114612cbf5760018114612cd457612d07565b60ff1983168652811515820286019350612d07565b612cdd856126fd565b60005b83811015612cff57815481890152600182019150602081019050612ce0565b838801955050505b50505092915050565b6000612d1b82611fa8565b612d258185612c82565b9350612d35818560208601611fc4565b80840191505092915050565b7f2e6a736f6e000000000000000000000000000000000000000000000000000000600082015250565b6000612d77600583612c82565b9150612d8282612d41565b600582019050919050565b6000612d998285612c8d565b9150612da58284612d10565b9150612db082612d6a565b91508190509392505050565b600081519050919050565b600082825260208201905092915050565b6000612de382612dbc565b612ded8185612dc7565b9350612dfd818560208601611fc4565b612e0681611fee565b840191505092915050565b6000608082019050612e2660008301876120ef565b612e3360208301866120ef565b612e406040830185612185565b8181036060830152612e528184612dd8565b905095945050505050565b600081519050612e6c81611f4f565b92915050565b600060208284031215612e8857612e87611f19565b5b6000612e9684828501612e5d565b91505092915050565b7f4e487b7100000000000000000000000000000000000000000000000000000000600052601260045260246000fd5b6000604082019050612ee360008301856120ef565b612ef06020830184612185565b939250505056fea264697066735822122045b231b8ac256fbaba558c9ac21ddae15bb64b359a8a2eac49794d8015a6e25664736f6c634300081c0033",
    "linkReferences": {},
    "deployedLinkReferences": {}
}